:060000000A128A1110280B
:10000800FE00030E83120313C3000408C4000A0889
:10001800C5000A128A11E9280A128A1113288313C3
:100028003030FD000230FE00E030FF002030840058
:100038000A128A11BE220A128A11B001B101B20154
:10004800B301B401B501B601B701B801B901BA01EC
:10005800BB0183010A128A113D2AF80078080319A6
:10006800362837284B28F31F3A283B284B28700995
:10007800FA007109FB007209FC007309FD00FA0A15
:100088000319FB0A0319FC0A0319FD0A532873080C
:10009800FD007208FC007108FB007008FA00730884
:1000A800720471047004031D5A285B286428003008
:1000B800F3000030F2000030F1000030F000E828D2
:1000C8009630F90074280130F4007408F9070130FB
:1000D8000310FD0CFC0CFB0CFA0CFF3E031D6C28F6
:1000E800FE307D05031D79287A2867289628013077
:1000F800F4007408F9070130FA07003003180130DA
:10010800FB07003003180130FC07003003180130EA
:10011800FD0701300310FD0CFC0CFB0CFA0CFF3E34
:10012800031D8E28FF307D05031D9B289C287B28F6
:10013800A8280130F9020130F4000310FA0DFB0D74
:10014800FC0DFD0DF40BA128FC1BAB28AC28B22834
:10015800023079020318B128B2289D287918B528E9
:10016800B628BE28FF30FA05FF30FB057F30FC05B6
:10017800FF30FD050310F90C7908F400F501F601CC
:10018800F70118300310F40DF50DF60DF70DFF3ECD
:10019800031DC6287408FA047508FB047608FC04D5
:1001A8007708FD0478080319DA28DB28E028F31F0C
:1001B800DE28DF28E028FD177D08F3007C08F20020
:1001C8007B08F1007A08F00008000C1EEC28ED28E6
:1001D800EE280C128C1EF128F228F3288C120C1F22
:1001E800F628F72803290A128A110A220A128A1104
:1001F800831203133D08B7003C08B6000C130B1D0F
:10020800062907293B2934033504031D0C290D2928
:100218001F2989103708F1003608F0000A128A11E0
:1002280085220A128A1170088312031388000914A0
:10023800B401B501382934083504031D24292529BA
:10024800382909103708F1003608F0000A128A1117
:10025800CD220A128A1170088312031388008914A8
:100268000130B4000030B500B33081000B110B1C15
:100278003E293F295729061C422943294C2906189B
:100288004629472943290130C200420887075629D1
:10029800861C4F2950295629861853295429502934
:1002A800013087020B1045088A0044088400430E79
:1002B8008300FE0E7E0E09000310720D730DF90007
:1002C8007908031D6829692972290030F300003074
:1002D800F2000030F1000030F000D5297008F40079
:1002E8007108F5007208F6007308F7001F30031054
:1002F800F70CF60CF50CF40CFF3E031D7B29740873
:10030800F800F217FF30F005FF30F105FF30F20575
:100318000030F3059630F902F91F93299429AE2984
:100328007908803A973E03189A299B299C296929BC
:1003380001300310F30CF20CF10CF00CFF3E031D1E
:100348009D290130F4007408F907031DAC29AD2973
:100358009C29C52920307902031CB329B429C02956
:1003680069290130F4000310F00DF10DF20DF30DC1
:10037800F40BB7290130F9027908031DC429C529EE
:10038800B52978080319C929CA29D529F009F10915
:10039800F209F309F00A0319F10A0319F20A031919
:1003A800F30A0800013083160317880089018316B1
:1003B80003138501033086008701880189018312B0
:1003C80003138501860187018801890183160313B8
:1003D8000F088F3930388F000F14033096008113BF
:1003E8008B158B170C178B16831203130C130B101A
:1003F80083160313811281110108F839033881002B
:10040800B3308312031381000B1108008312031306
:100418001E08BE00BF01C001C1014108F300400829
:10042800F2003F08F1003E08F00000300A128A117D
:1004380031200A128A11730883120313B300720859
:10044800B2007108B1007008B0003308F300320838
:10045800F2003108F1003008F0000A128A11602118
:100468000A128A11710883120313BD007008BC00B8
:1004780008000A128A11D6210A128A110A128A1150
:10048800A2220A128A11013083120313B400003029
:10049800B5000A128A1163220A128A11C330831224
:1004A80003139F05033083120313C700C70B5A2A8F
:1004B800831203139F144D2A0A128A1110288312DB
:1004C80003133708803A803C031D6C2A360808025B
:1004D80003186F2A702A742A831203130915842AB1
:1004E800831203133708803A803C031D7D2A36089F
:1004F8000802031C802A812A842A83120313091103
:1005080008007108F3007008F20004300310F30CBF
:10051800F20CFF3E031D8A2A720883120313BA00E5
:100528003A08203E840083130008B9003908F20015
:10053800F3017208F0007308F10008008312031336
:100548001F083F3940389F00831603139F121F125C
:100558009F13C330831203139F051F140C1303301A
:1005680083120313C600C60BB72A08007E088A0048
:100578007F0882000A128A11BA220A128A118000A0
:10058800840A04087D0603190034FF0A0319FE0AC9
:10059800BE2A70080F3983120313BB003B08203EA4
:1005A800840083130008B8003808F200F3017208C9
:1005B800F0007308F10008003F3406345B344F3410
:1005C80066346D347D3407347F346F3477347C344B
:0805D80039345E3479347134CA
:08400000FF3FFF3FFF3FFF3FC0
:04400E00D420FF3F7C
:00000001FF
